:100000000C942A000C9447000C9447000C94470071
:100010000C9447000C9447000C9447000C94470044
:100020000C9447000C9447000C9447000C94251D39
:100030000C9447000C9447000C9447000C94470024
:100040000C9447000C9447000C9447000C94470014
:100050000C94470011241FBECFE5D8E0DEBFCDBF12
:1000600010E0A0E6B0E0EEE3FBE302C005900D92E5
:10007000A43CB107D9F710E0A4ECB0E001C01D9298
:10008000AC3CB107E1F70E9430120C949D1D0C941A
:100090000000EF92FF920F931F937B018C0120E0F1
:1000A00030E040E05FE40E94490388238CF0C801FF
:1000B000B70120E030E040E05FE40E94C1010E940F
:1000C000A9039B01AC01205030404040504806C07D
:1000D000C801B7010E94A9039B01AC01B901CA0183
:1000E0001F910F91FF90EF900895A0E0B0E0EBE733
:1000F000F0E00C94661DDC012B01FA019C9192301A
:1001000008F439C1EB018881823008F433C194309E
:1001100069F4843009F02FC111969C91119789815F
:10012000981709F428C1A1EAB0E025C1843009F488
:1001300021C18230A9F4923009F01DC19A01AD01AC
:1001400088E0EA010990AE01E90109929E0181501F
:10015000C1F7E201898111969C918923818308C1AD
:10016000923009F407C112962D903C901397EB0141
:100170008A819B811496AD90BD90CD90DC901797AD
:10018000EC80FD800E811F819101281B390BB90184
:1001900037FF04C066277727621B730B6032710537
:1001A0000CF061C0121613066CF537014801062EDB
:1001B00004C096948794779467940A94D2F721E0C8
:1001C00030E040E050E004C0220F331F441F551FB1
:1001D0006A95D2F721503040404050402E213F21B7
:1001E00040235123211531054105510521F021E01E
:1001F00030E040E050E079018A01E628F72808293C
:1002000019293CC0232BD1F1260E371E350146019A
:10021000062E04C096948794779467940A94D2F734
:1002200021E030E040E050E004C0220F331F441FC3
:10023000551F6A95D2F721503040404050402A2146
:100240003B214C215D21211531054105510521F04E
:1002500021E030E040E050E059016A01A628B728CB
:10026000C828D9280BC0821593052CF01C01AA249C
:10027000BB24650103C0EE24FF24870111969C91E5
:10028000D20111968C91981709F445C0992339F041
:10029000A80197012A193B094C095D0906C0A6016E
:1002A00095012E193F09400B510B57FD08C01182D3
:1002B0003382228224833583468357831DC081E0A5
:1002C00081833382228288279927DC01821B930B4A
:1002D000A40BB50B84839583A683B7830DC0220F2F
:1002E000331F441F551F24833583468357838281E0
:1002F000938101979383828324813581468157813D
:10030000DA01C9010197A109B1098F5F9F4FAF4F72
:10031000BF4328F30BC0918333822282EA0CFB1C7B
:100320000C1D1D1DE482F5820683178383E0808304
:10033000248135814681578157FF1AC0C901AA27F8
:1003400097FDA095BA2F81709070A070B0705695EF
:10035000479537952795822B932BA42BB52B848318
:100360009583A683B7838281938101969383828349
:10037000DF0101C0D201CD01CDB7DEB7E2E10C94BF
:10038000821DA0E2B0E0E7ECF1E00C94721D6983FD
:100390007A838B839C832D833E834F835887E9E048
:1003A000EE2EF12CEC0EFD1ECE010196B7010E943F
:1003B000D2048E010F5E1F4FCE010596B8010E9438
:1003C000D2048A8991E089278A8BC701B801AE01DE
:1003D000475E5F4F0E9475000E94FD03A096E6E015
:1003E0000C948E1DA0E2B0E0E8EFF1E00C94721DD9
:1003F00069837A838B839C832D833E834F835887C5
:10040000F9E0EF2EF12CEC0EFD1ECE010196B701A6
:100410000E94D2048E010F5E1F4FCE010596B801D7
:100420000E94D204C701B801AE01475E5F4F0E942F
:1004300075000E94FD03A096E6E00C948E1DA0E2DC
:10044000B0E0E5E2F2E00C94661D69837A838B8369
:100450009C832D833E834F835887CE010196BE0136
:10046000675F7F4F0E94D204CE010596BE016F5E8A
:100470007F4F0E94D2049985923088F0898982301A
:10048000C8F0943019F4823051F404C0843029F457
:10049000923081F481EA90E0C6C0923049F420E0C5
:1004A0009A858A89981321E02A87CE010996BBC0D4
:1004B000823049F420E09A858A89981321E02A8BBA
:1004C000CE014196B0C02D843E844F8458886D88FB
:1004D0007E888F88988CEE24FF248701AA24BB2471
:1004E000650140E050E060E070E0E0E0F0E0C10174
:1004F00081709070892BE9F0E60CF71C081D191D1E
:100500009A01AB012A0D3B1D4C1D5D1D80E090E062
:10051000A0E0B0E0E614F7040805190520F481E036
:1005200090E0A0E0B0E0BA01A901480F591F6A1F8E
:100530007B1FAA0CBB1CCC1CDD1C97FE08C081E0F5
:1005400090E0A0E0B0E0A82AB92ACA2ADB2A3196B6
:10055000E032F10549F0660C771C881C991C569412
:10056000479437942794C3CFFA85EA892B893C892D
:100570008B859C85280F391F2E5F3F4F17C0CA01FE
:1005800081709070892B61F016950795F794E79428
:1005900080E090E0A0E0B0E8E82AF92A0A2B1B2BC3
:1005A00076956795579547952F5F3F4F77FDE7CF36
:1005B0000CC0440F551F661F771F17FD4160EE0CDE
:1005C000FF1C001F111F21503040403090E05907A0
:1005D00090E0690790E4790760F32B8F3C8FDB0193
:1005E000CA018F779070A070B07080349105A1051A
:1005F000B10561F447FD0AC0E114F10401051105DC
:1006000029F0405C5F4F6F4F7F4F40781A8EFE1786
:1006100011F081E08A8F4D8F5E8F6F8F78A383E01A
:10062000898FCE0149960E94FD03A096E2E10C94C9
:10063000821DA8E1B0E0EFE1F3E00C94721D698344
:100640007A838B839C832D833E834F83588789E0F5
:10065000E82EF12CEC0EFD1ECE010196B7010E9492
:10066000D2048E010F5E1F4FCE010596B8010E9485
:10067000D2048985823040F08989823028F0C70110
:10068000B8010E944A0501C08FEF6896E6E00C941D
:100690008E1DA8E1B0E0EFE4F3E00C94721D6983D5
:1006A0007A838B839C832D833E834F83588789E095
:1006B000E82EF12CEC0EFD1ECE010196B7010E9432
:1006C000D2048E010F5E1F4FCE010596B8010E9425
:1006D000D2048985823040F08989823028F0C701B0
:1006E000B8010E944A0501C08FEF6896E6E00C94BD
:1006F0008E1DA8E1B0E0EFE7F3E00C94721D698372
:100700007A838B839C832D833E834F83588789E034
:10071000E82EF12CEC0EFD1ECE010196B7010E94D1
:10072000D2048E010F5E1F4FCE010596B8010E94C4
:10073000D2048985823040F08989823028F0C7014F
:10074000B8010E944A0501C081E06896E6E00C9479
:100750008E1DACE0B0E0EFEAF3E00C94761D698307
:100760007A838B839C83CE010196BE016B5F7F4FA2
:100770000E94D2048D81823061F1823050F1843048
:1007800021F48E81882351F12EC02F81388537FDC9
:1007900020C06E812F3131051CF06623F9F023C093
:1007A0008EE190E0821B930B29853A854B855C8511
:1007B00004C056954795379527958A95D2F76623B5
:1007C000B1F050954095309521953F4F4F4F5F4F79
:1007D0000EC020E030E040E050E009C02FEF3FEFD6
:1007E0004FEF5FE704C020E030E040E050E8B9019F
:1007F000CA012C96E2E00C94921DDF92EF92FF92D8
:100800000F931F93FC01E480F58006811781D1804E
:100810008081823048F480E090E0A0E1B0E0E82AF6
:10082000F92A0A2B1B2BA5C0843009F49FC0823003
:1008300021F4EE24FF24870105C0E114F104010531
:10084000110519F4E0E0F0E096C0628173819FEF3A
:10085000623879070CF05BC022E83FEF261B370BAC
:100860002A3131052CF020E030E040E050E02AC091
:10087000B801A701022E04C0769567955795479554
:100880000A94D2F781E090E0A0E0B0E004C0880FC5
:10089000991FAA1FBB1F2A95D2F70197A109B10979
:1008A0008E219F21A023B1230097A105B10521F03E
:1008B00081E090E0A0E0B0E09A01AB01282B392B59
:1008C0004A2B5B2BDA01C9018F779070A070B07052
:1008D00080349105A105B10539F427FF09C0205CDA
:1008E0003F4F4F4F5F4F04C0215C3F4F4F4F5F4F13
:1008F000E0E0F0E02030A0E03A07A0E04A07A0E402
:100900005A0710F0E1E0F0E079018A0127C0603871
:10091000710564F5FB01E158FF4FD801C7018F77DE
:100920009070A070B07080349105A105B10539F4C4
:10093000E7FE0DC080E490E0A0E0B0E004C08FE3EB
:1009400090E0A0E0B0E0E80EF91E0A1F1B1F17FFA1
:1009500005C016950795F794E794319687E01695AC
:100960000795F794E7948A95D1F705C0EE24FF2404
:100970008701EFEFF0E06E2F679566276795902F60
:100980009F77D794DD24D7948E2F8695492F462BB9
:10099000582F5D29B701CA011F910F91FF90EF9069
:1009A000DF900895FC01DB01408151812281622F9B
:1009B0006F7770E0221F2227221F9381892F880FD3
:1009C000822B282F30E0991F9927991F11969C930D
:1009D000119721153105A9F54115510561057105DD
:1009E00011F482E037C082E89FEF13969C938E93B8
:1009F00012979A01AB0167E0220F331F441F551F66
:100A00006A95D1F783E08C930DC0220F331F441FEA
:100A1000551F12968D919C911397019713969C9355
:100A20008E931297203080E0380780E0480780E4FA
:100A3000580758F314962D933D934D935C93179755
:100A400008952F3F310579F4411551056105710570
:100A500019F484E08C93089564FF03C081E08C93C3
:100A600012C01C9210C02F57304013963C932E9307
:100A7000129783E08C9387E0440F551F661F771F02
:100A80008A95D1F7706414964D935D936D937C9322
:100A9000179708951F93DC01FB019C91923008F495
:100AA00047C08081823008F443C0943051F41196DD
:100AB0001C91843099F58181682F70E0611B710968
:100AC0003FC0843021F0923031F48230B9F181811D
:100AD000882389F12DC011961C9111978230F1F075
:100AE00081811817D9F412962D913C911397828128
:100AF00093818217930794F028173907BCF0149656
:100B00008D919D910D90BC91A02D248135814681C0
:100B10005781281739074A075B0718F4112341F05A
:100B20000AC082179307A407B50740F4112319F0F0
:100B300061E070E005C06FEF7FEF02C060E070E041
:100B4000CB011F910895DF93CF93CDB7DEB7A3E517
:100B5000B0E0E3E5F0E0808184608C930E9482063F
:100B6000A9E5B0E0E9E5F0E0808181608C93CF9168
:100B7000DF910895DF93CF93CDB7DEB7A3E5B0E063
:100B8000E3E5F0E0808188608C93ECE5F0E080E5BF
:100B90008083A3E5B0E0E3E5F0E0808181608C93A1
:100BA000A3E5B0E0E3E5F0E0808184608C930E94EF
:100BB0008206A9E5B0E0E9E5F0E0808182608C93EF
:100BC000CF91DF910895DF93CF93CDB7DEB7A7E341
:100BD000B0E0E7E3F0E0808188608C93A3E5B0E0CB
:100BE000E3E5F0E0808188608C93ECE5F0E080E460
:100BF0008083A3E5B0E0E3E5F0E0808181608C9341
:100C0000A3E5B0E0E3E5F0E0808184608C93A3E5A8
:100C1000B0E0E3E5F0E0808180618C93CF91DF91DB
:100C20000895DF93CF93CDB7DEB7A7E3B0E0E7E356
:100C3000F0E0808188608C93A3E5B0E0E3E5F0E02C
:100C4000808180648C93A3E5B0E0E3E5F0E08081EF
:100C500088608C93ECE5F0E080E48083A3E5B0E06D
:100C6000E3E5F0E0808181608C93A3E5B0E0E3E50B
:100C7000F0E0808184608C93A3E5B0E0E3E5F0E0F0
:100C8000808180618C93A3E5B0E0E3E5F0E08081B2
:100C900080628C93CF91DF910895DF93CF93CDB78E
:100CA000DEB7A7E3B0E0E7E3F0E0808188608C93F3
:100CB000A3E5B0E0E3E5F0E0808180648C93ECE5AF
:100CC000F0E080E48083A3E5B0E0E3E5F0E080813C
:100CD00081608C93A3E5B0E0E3E5F0E0808184607F
:100CE0008C93A3E5B0E0E3E5F0E0808180618C9334
:100CF000A3E5B0E0E3E5F0E0808180628C93CF91E2
:100D0000DF910895DF93CF93CDB7DEB7AFE5B0E0C5
:100D1000EFE5F0E0808180688C93CF91DF910895BA
:100D2000DF93CF93CDB7DEB7AFE5B0E0EFE5F0E00E
:100D3000808180688C93CF91DF910895DF93CF936A
:100D4000CDB7DEB727970FB6F894DEBF0FBECDBF85
:100D500089836A834B838A81883008F0EAC08B815B
:100D6000882309F074C08981282F30E03F832E83C7
:100D70008E819F818130910559F12E813F812230F2
:100D800031052CF48E819F81009769F0D2C02E81AD
:100D90003F812230310589F18E819F818330910519
:100DA00009F440C0C6C0AAE3B0E0EAE3F0E0808105
:100DB000482F8A81282F30E081E090E0022E02C087
:100DC000880F991F0A94E2F7809584238C93B1C011
:100DD000A7E3B0E0E7E3F0E08081482F8A81282F85
:100DE00030E081E090E0022E02C0880F991F0A9443
:100DF000E2F7809584238C939CC0A4E3B0E0E4E305
:100E0000F0E08081482F8A81282F30E081E090E057
:100E1000022E02C0880F991F0A94E2F7809584235E
:100E20008C9387C0A1E3B0E0E1E3F0E08081482F3C
:100E30008A81282F30E081E090E0022E02C0880FE6
:100E4000991F0A94E2F7809584238C9372C08B815A
:100E5000813009F06EC08981282F30E03D832C83DA
:100E60008C819D818130910549F12C813D81223019
:100E700031052CF48C819D81009761F05AC02C8142
:100E80003D812230310571F18C819D818330910546
:100E9000E9F14FC0AAE3B0E0EAE3F0E08081482F37
:100EA0008A81282F30E081E090E0022E02C0880F76
:100EB000991F0A94E2F7842B8C933BC0A7E3B0E020
:100EC000E7E3F0E08081482F8A81282F30E081E03D
:100ED00090E0022E02C0880F991F0A94E2F7842B3B
:100EE0008C9327C0A4E3B0E0E4E3F0E08081482FD6
:100EF0008A81282F30E081E090E0022E02C0880F26
:100F0000991F0A94E2F7842B8C9313C0A1E3B0E0FD
:100F1000E1E3F0E08081482F8A81282F30E081E0F2
:100F200090E0022E02C0880F991F0A94E2F7842BEA
:100F30008C9327960FB6F894DEBF0FBECDBFCF912E
:100F4000DF910895DF93CF93CDB7DEB727970FB624
:100F5000F894DEBF0FBECDBF89836A834B838A813D
:100F6000883008F0EAC08B81882309F074C0898139
:100F7000282F30E03F832E838E819F818130910521
:100F800059F12E813F81223031052CF48E819F81D1
:100F9000009769F0D2C02E813F812230310589F15E
:100FA0008E819F818330910509F440C0C6C0ABE3B8
:100FB000B0E0EBE3F0E08081482F8A81282F30E019
:100FC00081E090E0022E02C0880F991F0A94E2F798
:100FD000809584238C93B1C0A8E3B0E0E8E3F0E00F
:100FE0008081482F8A81282F30E081E090E0022E16
:100FF00002C0880F991F0A94E2F7809584238C938E
:101000009CC0A5E3B0E0E5E3F0E08081482F8A8151
:10101000282F30E081E090E0022E02C0880F991F57
:101020000A94E2F7809584238C9387C0A2E3B0E012
:10103000E2E3F0E08081482F8A81282F30E081E0D0
:1010400090E0022E02C0880F991F0A94E2F7809563
:1010500084238C9372C08B81813009F06EC08981AA
:10106000282F30E03D832C838C819D818130910538
:1010700049F12C813D81223031052CF48C819D81F8
:10108000009761F05AC02C813D812230310571F109
:101090008C819D8183309105E9F14FC0ABE3B0E0D5
:1010A000EBE3F0E08081482F8A81282F30E081E057
:1010B00090E0022E02C0880F991F0A94E2F7842B59
:1010C0008C933BC0A8E3B0E0E8E3F0E08081482FD8
:1010D0008A81282F30E081E090E0022E02C0880F44
:1010E000991F0A94E2F7842B8C9327C0A5E3B0E004
:1010F000E5E3F0E08081482F8A81282F30E081E00D
:1011000090E0022E02C0880F991F0A94E2F7842B08
:101110008C9313C0A2E3B0E0E2E3F0E08081482FBB
:101120008A81282F30E081E090E0022E02C0880FF3
:10113000991F0A94E2F7842B8C9327960FB6F894A4
:10114000DEBF0FBECDBFCF91DF910895DF93CF9368
:1011500000D000D00F92CDB7DEB78A836B838B812E
:10116000883008F067C08A81282F30E03D832C83C7
:101170004C815D814130510541F18C819D818230EE
:10118000910534F42C813D812115310561F052C067
:101190004C815D814230510551F18C819D818330BC
:1011A0009105B9F147C0E9E3F0E08081282F30E0F4
:1011B0008B81882F90E0A90102C0559547958A95AB
:1011C000E2F7CA018170898335C0E6E3F0E08081EF
:1011D000282F30E08B81882F90E0A90102C055951F
:1011E00047958A95E2F7CA018170898323C0E3E3BA
:1011F000F0E08081282F30E08B81882F90E0A901DA
:1012000002C0559547958A95E2F7CA018170898396
:1012100011C0E0E3F0E08081282F30E08B81882F3F
:1012200090E0A90102C0559547958A95E2F7CA0159
:101230008170898389810F900F900F900F900F908C
:10124000CF91DF910895DF93CF9300D000D0CDB739
:10125000DEB789836A838981282F30E03C832B8322
:101260008B819C8181309105D1F02B813C81223092
:1012700031052CF48B819C81009761F01EC02B817D
:101280003C812230310581F08B819C818330910536
:1012900081F013C0EAE3F0E08A8180830EC0E7E3C7
:1012A000F0E08A81808309C0E4E3F0E08A818083F2
:1012B00004C0E1E3F0E08A8180830F900F900F90EB
:1012C0000F90CF91DF910895DF93CF9300D000D09E
:1012D000CDB7DEB789836A838981282F30E03C83CC
:1012E0002B838B819C8181309105D1F02B813C81B6
:1012F000223031052CF48B819C81009761F01EC057
:101300002B813C812230310581F08B819C8183309F
:10131000910581F013C0EBE3F0E08A8180830EC079
:10132000E8E3F0E08A81808309C0E5E3F0E08A81A8
:10133000808304C0E2E3F0E08A8180830F900F9005
:101340000F900F90CF91DF910895DF93CF9300D04E
:1013500000D0CDB7DEB789836A838A818F708A8394
:101360008981282F30E03C832B838B819C818130C5
:10137000910529F12B813C81223031052CF48B81A0
:101380009C81009761F04AC02B813C81223031055D
:1013900031F18B819C818330910589F13FC0ABE3B2
:1013A000B0E0EBE3F0E08081807F8C93ABE3B0E0D2
:1013B000EBE3F0E090818A81892B8C932FC0A8E326
:1013C000B0E0E8E3F0E08081807F8C93A8E3B0E0B8
:1013D000E8E3F0E090818A81892B8C931FC0A5E31C
:1013E000B0E0E5E3F0E08081807F8C93A5E3B0E09E
:1013F000E5E3F0E090818A81892B8C930FC0A2E312
:10140000B0E0E2E3F0E08081807F8C93A2E3B0E083
:10141000E2E3F0E090818A81892B8C930F900F900A
:101420000F900F90CF91DF910895DF93CF9300D06D
:1014300000D0CDB7DEB789836A838A818295807FA9
:101440008A838981282F30E03C832B838B819C8188
:101450008130910529F12B813C81223031052CF41A
:101460008B819C81009761F04AC02B813C812230A6
:10147000310531F18B819C818330910589F13FC029
:10148000ABE3B0E0EBE3F0E080818F708C93ABE3F3
:10149000B0E0EBE3F0E090818A81892B8C932FC040
:1014A000A8E3B0E0E8E3F0E080818F708C93A8E3DC
:1014B000B0E0E8E3F0E090818A81892B8C931FC033
:1014C000A5E3B0E0E5E3F0E080818F708C93A5E3C5
:1014D000B0E0E5E3F0E090818A81892B8C930FC026
:1014E000A2E3B0E0E2E3F0E080818F708C93A2E3AE
:1014F000B0E0E2E3F0E090818A81892B8C930F9039
:101500000F900F900F90CF91DF9108950F931F933D
:10151000DF93CF93CDB7DEB7C455D0400FB6F89464
:10152000DEBF0FBECDBFFE01EF5AFF4F80E090E05F
:10153000A8E4B3E480839183A283B3838E01035B29
:101540001F4FFE01EF5AFF4F6081718182819381AD
:1015500020E030E04AEF54E40E941F02DC01CB019E
:10156000F80180839183A283B383FE01E35BFF4F85
:10157000608171818281938120E030E040E85FE307
:101580000E947903882344F4FE01E55BFF4F81E06C
:1015900090E09183808364C0FE01E35BFF4F608134
:1015A00071818281938120E03FEF4FE757E40E94F1
:1015B000190318160CF043C0FE01EF5AFF4F60816B
:1015C00071818281938120E030E040E251E40E9409
:1015D0001F02DC01CB018E01055B1F4FBC01CD0159
:1015E0000E944900DC01CB01F801918380831FC078
:1015F000FE01E75BFF4F88EC90E091838083FE0162
:10160000E75BFF4F808191810197F1F7FE01E75B76
:10161000FF4F91838083DE01A55BBF4FFE01E55B39
:10162000FF4F80819181019711969C938E93FE01CB
:10163000E55BFF4F808191810097D1F627C08E0135
:10164000055B1F4FFE01E35BFF4F6081718182816B
:1016500093810E944900DC01CB01F80191838083D2
:10166000DE01A95BBF4FFE01E55BFF4F80819181E9
:101670008D939C93FE01E95BFF4F808191810197DF
:10168000F1F7FE01E95BFF4F9183808380E064E026
:1016900041E00E949E0680E065E041E00E949E06D7
:1016A00080E066E041E00E949E0680E067E041E065
:1016B0000E949E0680E060E041E00E949E0680E07D
:1016C00061E041E00E949E0680E062E041E00E940D
:1016D0009E0680E061E040E00E94A20782E00E9456
:1016E000D70EFE01ED5BFF4F80E090E0A0E2B1E499
:1016F00080839183A283B3838E01015C1F4FFE011F
:10170000ED5BFF4F608171818281938120E030E049
:101710004AEF54E40E941F02DC01CB01F8018083F0
:101720009183A283B383FE01FF96608171818281E0
:10173000938120E030E040E85FE30E947903882352
:101740002CF481E090E09EAF8DAF46C0FE01FF9685
:10175000608171818281938120E03FEF4FE757E400
:101760000E941903181664F5FE01ED5BFF4F6081BE
:1017700071818281938120E030E040E251E40E9457
:101780001F02DC01CB01BC01CD010E944900DC013C
:10179000CB019EAF8DAF0FC088EC90E09CAF8BAFBC
:1017A0008BAD9CAD0197F1F79CAF8BAF8DAD9EAD2E
:1017B00001979EAF8DAF8DAD9EAD009769F716C0B6
:1017C000FE01FF9660817181828193810E944900B0
:1017D000DC01CB019EAF8DAF8DAD9EAD9AAF89AFD1
:1017E00089AD9AAD0197F1F79AAF89AF88E20E946F
:1017F000D70E80E090E0A0E8BFE38DAB9EABAFAB2F
:10180000B8AF6DA97EA98FA998AD20E030E04AEF6E
:1018100054E40E941F02DC01CB0189AB9AABABAB55
:10182000BCAB69A97AA98BA99CA920E030E040E86B
:101830005FE30E94790388232CF481E090E098AB69
:101840008FA73FC069A97AA98BA99CA920E03FEF87
:101850004FE757E40E94190318164CF56DA97EA9AD
:101860008FA998AD20E030E040E251E40E941F02D1
:10187000DC01CB01BC01CD010E944900DC01CB01A0
:1018800098AB8FA70FC088EC90E09EA78DA78DA581
:101890009EA50197F1F79EA78DA78FA598A90197FF
:1018A00098AB8FA78FA598A9009769F714C069A96D
:1018B0007AA98BA99CA90E944900DC01CB0198ABB5
:1018C0008FA78FA598A99CA78BA78BA59CA50197EF
:1018D000F1F79CA78BA78EE00E94D70E80E090E0E6
:1018E000A0E8BFE38FA398A7A9A7BAA76FA178A57F
:1018F00089A59AA520E030E04AEF54E40E941F0237
:10190000DC01CB018BA39CA3ADA3BEA36BA17CA1E7
:101910008DA19EA120E030E040E85FE30E947903C2
:1019200088232CF481E090E09AA389A33FC06BA1A7
:101930007CA18DA19EA120E03FEF4FE757E40E94DC
:10194000190318164CF56FA178A589A59AA520E072
:1019500030E040E251E40E941F02DC01CB01BC01F7
:10196000CD010E944900DC01CB019AA389A30FC0DD
:1019700088EC90E098A38F8F8F8D98A10197F1F755
:1019800098A38F8F89A19AA101979AA389A389A16E
:101990009AA1009769F714C06BA17CA18DA19EA1AB
:1019A0000E944900DC01CB019AA389A389A19AA1D5
:1019B0009E8F8D8F8D8D9E8D0197F1F79E8F8D8FD0
:1019C00081E00E94D70E80E090E0A0E2B1E4898F30
:1019D0009A8FAB8FBC8F698D7A8D8B8D9C8D20E01B
:1019E00030E04AEF54E40E941F02DC01CB018D8BF2
:1019F0009E8BAF8BB88F6D897E898F89988D20E003
:101A000030E040E85FE30E94790388232CF481E012
:101A100090E09C8B8B8B3FC06D897E898F89988DE0
:101A200020E03FEF4FE757E40E94190318164CF5EA
:101A3000698D7A8D8B8D9C8D20E030E040E251E401
:101A40000E941F02DC01CB01BC01CD010E944900B4
:101A5000DC01CB019C8B8B8B0FC088EC90E09A8BC8
:101A6000898B89899A890197F1F79A8B898B8B8960
:101A70009C8901979C8B8B8B8B899C89009769F73C
:101A800014C06D897E898F89988D0E944900DC0180
:101A9000CB019C8B8B8B8B899C89988B8F878F85B7
:101AA00098890197F1F7988B8F8786E00E94D70E6F
:101AB00080E090E0A0E8BFE38B879C87AD87BE877E
:101AC0006B857C858D859E8520E030E04AEF54E46F
:101AD0000E941F02DC01CB018F839887A987BA87F8
:101AE0006F81788589859A8520E030E040E85FE362
:101AF0000E94790388232CF481E090E09E838D83FB
:101B00003FC06F81788589859A8520E03FEF4FE758
:101B100057E40E94190318164CF56B857C858D855A
:101B20009E8520E030E040E251E40E941F02DC018B
:101B3000CB01BC01CD010E944900DC01CB019E8399
:101B40008D830FC088EC90E09C838B838B819C817C
:101B50000197F1F79C838B838D819E8101979E83F2
:101B60008D838D819E81009769F714C06F81788580
:101B700089859A850E944900DC01CB019E838D8373
:101B80008D819E819A83898389819A810197F1F75A
:101B90009A838983CC5ADF4F0FB6F894DEBF0FBE0D
:101BA000CDBFCF91DF911F910F910895DF93CF9318
:101BB000CDB7DEB76C970FB6F894DEBF0FBECDBFC2
:101BC00080E060E041E00E94A20780E090E0A0E0B9
:101BD000B0E4898F9A8FAB8FBC8F698D7A8D8B8D96
:101BE0009C8D20E030E04AEF54E40E941F02DC01AB
:101BF000CB018D8B9E8BAF8BB88F6D897E898F8942
:101C0000988D20E030E040E85FE30E94790388236C
:101C10002CF481E090E09C8B8B8B3FC06D897E899A
:101C20008F89988D20E03FEF4FE757E40E9419031A
:101C300018164CF5698D7A8D8B8D9C8D20E030E0E7
:101C400040E251E40E941F02DC01CB01BC01CD0146
:101C50000E944900DC01CB019C8B8B8B0FC088EC70
:101C600090E09A8B898B89899A890197F1F79A8BF1
:101C7000898B8B899C8901979C8B8B8B8B899C8909
:101C8000009769F714C06D897E898F89988D0E94AD
:101C90004900DC01CB019C8B8B8B8B899C89988BB9
:101CA0008F878F8598890197F1F7988B8F8780E0D0
:101CB00060E040E00E94A20780E090E0A0E0B0E495
:101CC0008B879C87AD87BE876B857C858D859E8540
:101CD00020E030E04AEF54E40E941F02DC01CB0117
:101CE0008F839887A987BA876F81788589859A8538
:101CF00020E030E040E85FE30E94790388232CF481
:101D000081E090E09E838D833FC06F8178858985D7
:101D10009A8520E03FEF4FE757E40E941903181619
:101D20004CF56B857C858D859E8520E030E040E21A
:101D300051E40E941F02DC01CB01BC01CD010E94D5
:101D40004900DC01CB019E838D830FC088EC90E0BD
:101D50009C838B838B819C810197F1F79C838B8380
:101D60008D819E8101979E838D838D819E810097B9
:101D700069F714C06F81788589859A850E9449002A
:101D8000DC01CB019E838D838D819E819A83898323
:101D900089819A810197F1F79A8389836C960FB6AE
:101DA000F894DEBF0FBECDBFCF91DF910895DF93D2
:101DB000CF93CDB7DEB72F970FB6F894DEBF0FBE27
:101DC000CDBF8F878F85982F92959F7080E0692F68
:101DD0000E94150A80E062E040E00E94A2070E9493
:101DE000D60D80E06F850E94150A80E062E040E039
:101DF0000E94A2070E94D60D80E090E0A0E8BFE319
:101E00008B879C87AD87BE876B857C858D859E85FE
:101E100020E030E04AEF54E40E941F02DC01CB01D5
:101E20008F839887A987BA876F81788589859A85F6
:101E300020E030E040E85FE30E94790388232CF43F
:101E400081E090E09E838D833FC06F817885898596
:101E50009A8520E03FEF4FE757E40E9419031816D8
:101E60004CF56B857C858D859E8520E030E040E2D9
:101E700051E40E941F02DC01CB01BC01CD010E9494
:101E80004900DC01CB019E838D830FC088EC90E07C
:101E90009C838B838B819C810197F1F79C838B833F
:101EA0008D819E8101979E838D838D819E81009778
:101EB00069F714C06F81788589859A850E944900E9
:101EC000DC01CB019E838D838D819E819A838983E2
:101ED00089819A810197F1F79A8389832F960FB6AA
:101EE000F894DEBF0FBECDBFCF91DF910895DF9391
:101EF000CF93CDB7DEB72F970FB6F894DEBF0FBEE6
:101F0000CDBF8F878F85982F92959F7080E0692F26
:101F10000E94150A80E062E041E00E94A2070E9450
:101F2000D60D80E06F850E94150A80E062E041E0F6
:101F30000E94A2070E94D60D80E090E0A0E8BFE3D7
:101F40008B879C87AD87BE876B857C858D859E85BD
:101F500020E030E04AEF54E40E941F02DC01CB0194
:101F60008F839887A987BA876F81788589859A85B5
:101F700020E030E040E85FE30E94790388232CF4FE
:101F800081E090E09E838D833FC06F817885898555
:101F90009A8520E03FEF4FE757E40E941903181697
:101FA0004CF56B857C858D859E8520E030E040E298
:101FB00051E40E941F02DC01CB01BC01CD010E9453
:101FC0004900DC01CB019E838D830FC088EC90E03B
:101FD0009C838B838B819C810197F1F79C838B83FE
:101FE0008D819E8101979E838D838D819E81009737
:101FF00069F714C06F81788589859A850E944900A8
:10200000DC01CB019E838D838D819E819A838983A0
:1020100089819A810197F1F79A8389832F960FB668
:10202000F894DEBF0FBECDBFCF91DF910895DF934F
:10203000CF9300D0CDB7DEB79A8389830AC0E981F8
:10204000FA8180810E94770F89819A8101969A8313
:102050008983E981FA818081882389F70F900F9025
:10206000CF91DF910895DF93CF93CDB7DEB72E9751
:102070000FB6F894DEBF0FBECDBF81E00E94D70E31
:1020800080E090E0A0E2B1E48B879C87AD87BE87BB
:102090006B857C858D859E8520E030E04AEF54E499
:1020A0000E941F02DC01CB018F839887A987BA8722
:1020B0006F81788589859A8520E030E040E85FE38C
:1020C0000E94790388232CF481E090E09E838D8325
:1020D0003FC06F81788589859A8520E03FEF4FE783
:1020E00057E40E94190318164CF56B857C858D8585
:1020F0009E8520E030E040E251E40E941F02DC01B6
:10210000CB01BC01CD010E944900DC01CB019E83C3
:102110008D830FC088EC90E09C838B838B819C81A6
:102120000197F1F79C838B838D819E8101979E831C
:102130008D838D819E81009769F714C06F817885AA
:1021400089859A850E944900DC01CB019E838D839D
:102150008D819E819A83898389819A810197F1F784
:102160009A8389832E960FB6F894DEBF0FBECDBF3B
:10217000CF91DF910895DF93CF93CDB7DEB761970D
:102180000FB6F894DEBF0FBECDBF888B698B8889F0
:10219000833048F48889882331F08989813118F4A3
:1021A0008989882319F480E88F870DC08889813058
:1021B00021F4898981588F8706C08889823019F473
:1021C000898981548F878F850E94D70E80E090E0A7
:1021D000A0E8BFE38B879C87AD87BE876B857C8536
:1021E0008D859E8520E030E04AEF54E40E941F0276
:1021F000DC01CB018F839887A987BA876F817885A7
:1022000089859A8520E030E040E85FE30E94790309
:1022100088232CF481E090E09E838D833FC06F8102
:10222000788589859A8520E03FEF4FE757E40E9443
:10223000190318164CF56B857C858D859E8520E0ED
:1022400030E040E251E40E941F02DC01CB01BC01FE
:10225000CD010E944900DC01CB019E838D830FC01C
:1022600088EC90E09C838B838B819C810197F1F7B4
:102270009C838B838D819E8101979E838D838D812D
:102280009E81009769F714C06F81788589859A854A
:102290000E944900DC01CB019E838D838D819E814C
:1022A0009A83898389819A810197F1F79A83898337
:1022B00061960FB6F894DEBF0FBECDBFCF91DF9110
:1022C0000895DF93CF93CDB7DEB783E06FE00E9430
:1022D000230983E06FEF0E946409CF91DF91089595
:1022E000DF93CF93CDB7DEB769970FB6F894DEBF13
:1022F0000FBECDBFCE0105969E8B8D8BE9EAF0E037
:10230000F88FEF8BF0E1F98FEF89F88D00808F89DE
:10231000988D0196988F8F8BED89FE8900828D892B
:102320009E8901969E8B8D8B998D9150998FE98D09
:10233000EE2351F78FEF89831C8235C083E06C81D7
:1023400040E00E94A2071B8223C08B81982F9C5FD4
:1023500083E0692F0E94A6088A838A818823A9F4D2
:102360008C81282F30E08B81482F50E0220F331FC3
:10237000220F331FCE010196820F931F840F951FEA
:10238000FC0134968081898306C08B818F5F8B83AB
:102390008B818430D0F283E06C8141E00E94A207FF
:1023A0008C818F5F8C838C81843040F28981699627
:1023B0000FB6F894DEBF0FBECDBFCF91DF91089569
:1023C000DF93CF930F92CDB7DEB7898389816FEF0B
:1023D0000E9423090F90CF91DF910895DF93CF934F
:1023E000CDB7DEB761970FB6F894DEBF0FBECDBF95
:1023F0008B876C87CE0101969E878D87E9EBF0E095
:10240000F88BEF87FAE0F98BEF85F88900808F85EC
:1024100098890196988B8F87ED85FE8500828D8542
:102420009E8501969E878D8799899150998BE98920
:10243000EE2351F78C85282F30E0CE010196FC0168
:10244000E20FF31F90818B85692F0E9464096196CA
:102450000FB6F894DEBF0FBECDBFCF91DF910895C8
:102460000F931F93DF93CF93CDB7DEB7C45CD040FB
:102470000FB6F894DEBF0FBECDBF0E9461110E945F
:10248000860A81E00E94E01182E06FEF0E9423093A
:1024900080E690E00E94171082E061E00E94BB108D
:1024A0008BE690E00E9417100E94A3050E94701115
:1024B0008093CB008091CB008F3F09F465C680915B
:1024C000CB00813309F099C50E94331085E790E075
:1024D0000E94171081E067E00E94BB10FE01EF53DD
:1024E000FF4F80E090E0AAEFB3E480839183A28362
:1024F000B3838E0103541F4FFE01EF53FF4F6081E2
:1025000071818281938120E030E04AEF54E40E949F
:102510001F02DC01CB01F80180839183A283B38386
:10252000FE01E354FF4F608171818281938120E03D
:1025300030E040E85FE30E947903882344F4FE0121
:10254000E554FF4F81E090E09183808364C0FE01F9
:10255000E354FF4F608171818281938120E03FEFDE
:102560004FE757E40E94190318160CF043C0FE0110
:10257000EF53FF4F608171818281938120E030E0D1
:1025800040E251E40E941F02DC01CB018E010554A0
:102590001F4FBC01CD010E944900DC01CB01F801B5
:1025A000918380831FC0FE01E754FF4F88EC90E0C9
:1025B00091838083FE01E754FF4F808191810197D1
:1025C000F1F7FE01E754FF4F91838083DE01A554AC
:1025D000BF4FFE01E554FF4F808191810197119615
:1025E0009C938E93FE01E554FF4F8081918100976B
:1025F000D1F627C08E0105541F4FFE01E354FF4F53
:1026000060817181828193810E944900DC01CB014C
:10261000F80191838083DE01A954BF4FFE01E55488
:10262000FF4F808191818D939C93FE01E954FF4F70
:10263000808191810197F1F7FE01E954FF4F918369
:1026400080830E9470118093C9008091C9008F3FE0
:10265000C1F38091C9000E94770FFE01ED54FF4F36
:1026600080E090E0A6E9B3E480839183A283B38302
:102670008E0101551F4FFE01ED54FF4F60817181A6
:102680008281938120E030E04AEF54E40E941F02EF
:10269000DC01CB01F80180839183A283B383FE0127
:1026A000E155FF4F608171818281938120E030E0AC
:1026B00040E85FE30E947903882344F4FE01E35578
:1026C000FF4F81E090E09183808364C0FE01E1557B
:1026D000FF4F608171818281938120E03FEF4FE75E
:1026E00057E40E94190318160CF043C0FE01ED5484
:1026F000FF4F608171818281938120E030E040E270
:1027000051E40E941F02DC01CB018E0103551F4FD3
:10271000BC01CD010E944900DC01CB01F80191838D
:1027200080831FC0FE01E555FF4F88EC90E0918348
:102730008083FE01E555FF4F808191810197F1F77C
:10274000FE01E555FF4F91838083DE01A355BF4F06
:10275000FE01E355FF4F80819181019711969C9373
:102760008E93FE01E355FF4F808191810097D1F652
:1027700027C08E0103551F4FFE01E155FF4F6081B9
:102780007181828193810E944900DC01CB01F801B3
:1027900091838083DE01A755BF4FFE01E355FF4FB4
:1027A000808191818D939C93FE01E755FF4F80813D
:1027B00091810197F1F7FE01E755FF4F91838083E7
:1027C0000E9470118093CA008091CA008F3FC1F3AC
:1027D0008091CA000E94770FFE01EB55FF4F80E009
:1027E00090E0A6E9B3E480839183A283B3838E0152
:1027F0000F551F4FFE01EB55FF4F608171818281A4
:10280000938120E030E04AEF54E40E941F02DC0193
:10281000CB01F80180839183A283B383FE01EF553E
:10282000FF4F608171818281938120E030E040E838
:102830005FE30E947903882344F4FE01E156FF4FD1
:1028400081E090E09183808364C0FE01EF55FF4FEB
:10285000608171818281938120E03FEF4FE757E4EF
:102860000E94190318160CF043C0FE01EB55FF4FF0
:10287000608171818281938120E030E040E251E407
:102880000E941F02DC01CB018E0101561F4FBC01CB
:10289000CD010E944900DC01CB01F80191838083C6
:1028A0001FC0FE01E356FF4F88EC90E091838083C8
:1028B000FE01E356FF4F808191810197F1F7FE0100
:1028C000E356FF4F91838083DE01A156BF4FFE0187
:1028D000E156FF4F80819181019711969C938E93D1
:1028E000FE01E156FF4F808191810097D1F627C00C
:1028F0008E0101561F4FFE01EF55FF4F6081718120
:10290000828193810E944900DC01CB01F80191830F
:102910008083DE01A556BF4FFE01E156FF4F808147
:1029200091818D939C93FE01E556FF4F80819181AB
:102930000197F1F7FE01E556FF4F91838083809167
:10294000C900882F90E09C01220F331FC901880F16
:10295000991F880F991F820F931F982F8091CA008B
:10296000890F80518093C6000E9433108EE790E05B
:102970000E94171081E069E00E94BB100E94701154
:102980008093C9008091C9008F3FC1F38091C90035
:102990000E94770FFE01E956FF4F80E090E0A6E924
:1029A000B3E480839183A283B3838E010D561F4FBE
:1029B000FE01E956FF4F608171818281938120E0A1
:1029C00030E04AEF54E40E941F02DC01CB01F80121
:1029D00080839183A283B383FE01ED56FF4F608114
:1029E00071818281938120E030E040E85FE30E94C2
:1029F0007903882344F4FE01EF56FF4F81E090E015
:102A00009183808364C0FE01ED56FF4F6081718128
:102A10008281938120E03FEF4FE757E40E94190342
:102A200018160CF043C0FE01E956FF4F608171811A
:102A30008281938120E030E040E251E40E941F0255
:102A4000DC01CB018E010F561F4FBC01CD010E944E
:102A50004900DC01CB01F801918380831FC0FE0196
:102A6000E157FF4F88EC90E091838083FE01E157AE
:102A7000FF4F808191810197F1F7FE01E157FF4FF0
:102A800091838083DE01AF56BF4FFE01EF56FF4FAB
:102A900080819181019711969C938E93FE01EF5650
:102AA000FF4F808191810097D1F627C08E010F568C
:102AB0001F4FFE01ED56FF4F60817181828193812E
:102AC0000E944900DC01CB01F80191838083DE0183
:102AD000A357BF4FFE01EF56FF4F808191818D9329
:102AE0009C93FE01E357FF4F808191810197F1F79D
:102AF000FE01E357FF4F918380830E947011809302
:102B0000CA008091CA008F3FC1F38091CA000E9421
:102B1000770FFE01E757FF4F80E090E0A6E9B3E4AE
:102B200080839183A283B3838E010B571F4FFE01D5
:102B3000E757FF4F608171818281938120E030E00F
:102B40004AEF54E40E941F02DC01CB01F8018083AC
:102B50009183A283B383FE01EB57FF4F60817181A4
:102B60008281938120E030E040E85FE30E947903B6
:102B7000882344F4FE01ED57FF4F81E090E09183FC
:102B8000808364C0FE01EB57FF4F608171818281B9
:102B9000938120E03FEF4FE757E40E941903181696
:102BA0000CF043C0FE01E757FF4F608171818281C5
:102BB000938120E030E040E251E40E941F02DC01FA
:102BC000CB018E010D571F4FBC01CD010E94490062
:102BD000DC01CB01F801918380831FC0FE01EF5718
:102BE000FF4F88EC90E091838083FE01EF57FF4F09
:102BF000808191810197F1F7FE01EF57FF4F91839B
:102C00008083DE01AD57BF4FFE01ED57FF4F80813E
:102C10009181019711969C938E93FE01ED57FF4F82
:102C2000808191810097D1F627C08E010D571F4FEB
:102C3000FE01EB57FF4F60817181828193810E9479
:102C40004900DC01CB01F80191838083DE01A158AA
:102C5000BF4FFE01ED57FF4F808191818D939C9373
:102C6000FE01E158FF4F808191810197F1F7FE014C
:102C7000E158FF4F918380838091C900882F90E0B5
:102C80009C01220F331FC901880F991F880F991FBC
:102C9000820F931F982F8091CA00890F80518093D3
:102CA000C5000E94331089E890E00E94171081E06F
:102CB00069E00E94BB100E9470118093C90080914E
:102CC000C9008F3FC1F38091C9000E94770FFE01B8
:102CD000E558FF4F80E090E0A6E9B3E4808391835C
:102CE000A283B3838E0109581F4FFE01E558FF4FA1
:102CF000608171818281938120E030E04AEF54E469
:102D00000E941F02DC01CB01F80180839183A28322
:102D1000B383FE01E958FF4F608171818281938105
:102D200020E030E040E85FE30E947903882344F428
:102D3000FE01EB58FF4F81E090E09183808364C0F7
:102D4000FE01E958FF4F608171818281938120E00B
:102D50003FEF4FE757E40E94190318160CF043C0E9
:102D6000FE01E558FF4F608171818281938120E0EF
:102D700030E040E251E40E941F02DC01CB018E01F1
:102D80000B581F4FBC01CD010E944900DC01CB0153
:102D9000F801918380831FC0FE01ED58FF4F88EC3E
:102DA00090E091838083FE01ED58FF4F80819181F7
:102DB0000197F1F7FE01ED58FF4F91838083DE010B
:102DC000AB58BF4FFE01EB58FF4F808191810197B7
:102DD00011969C938E93FE01EB58FF4F8081918159
:102DE0000097D1F627C08E010B581F4FFE01E958FE
:102DF000FF4F60817181828193810E944900DC01D3
:102E0000CB01F80191838083DE01AF58BF4FFE01F3
:102E1000EB58FF4F808191818D939C93FE01EF5879
:102E2000FF4F808191810197F1F7FE01EF58FF4F2D
:102E3000918380830E9470118093CA008091CA00A0
:102E40008F3FC1F38091CA000E94770FFE01E359C2
:102E5000FF4F80E090E0A6E9B3E480839183A283F2
:102E6000B3838E0107591F4FFE01E359FF4F608165
:102E700071818281938120E030E04AEF54E40E9426
:102E80001F02DC01CB01F80180839183A283B3830D
:102E9000FE01E759FF4F608171818281938120E0BB
:102EA00030E040E85FE30E947903882344F4FE01A8
:102EB000E959FF4F81E090E09183808364C0FE0177
:102EC000E759FF4F608171818281938120E03FEF5C
:102ED0004FE757E40E94190318160CF043C0FE0197
:102EE000E359FF4F608171818281938120E030E05E
:102EF00040E251E40E941F02DC01CB018E0109591E
:102F00001F4FBC01CD010E944900DC01CB01F8013B
:102F1000918380831FC0FE01EB59FF4F88EC90E046
:102F200091838083FE01EB59FF4F8081918101974E
:102F3000F1F7FE01EB59FF4F91838083DE01A95920
:102F4000BF4FFE01E959FF4F808191810197119692
:102F50009C938E93FE01E959FF4F808191810097E8
:102F6000D1F627C08E0109591F4FFE01E759FF4FC7
:102F700060817181828193810E944900DC01CB01D3
:102F8000F80191838083DE01AD59BF4FFE01E959FD
:102F9000FF4F808191818D939C93FE01ED59FF4FEE
:102FA000808191810197F1F7FE01ED59FF4F9183E7
:102FB00080838091C900882F90E09C01220F331FED
:102FC000C901880F991F880F991F820F931F982F8F
:102FD0008091CA00890F80518093C4000E943310F1
:102FE00080E690E00E94171082E061E00E94BB1032
:102FF0008BE690E00E941710C7C00E94331084E94E
:1030000090E00E941710FE01E15AFF4F80E090E02F
:10301000AAE7B4E480839183A283B3838E01055A27
:103020001F4FFE01E15AFF4F6081718182819381C0
:1030300020E030E04AEF54E40E941F02DC01CB01A3
:10304000F80180839183A283B383FE01E55AFF4F89
:10305000608171818281938120E030E040E85FE30C
:103060000E947903882344F4FE01E75AFF4F81E070
:1030700090E09183808364C0FE01E55AFF4F608138
:1030800071818281938120E03FEF4FE757E40E94F6
:10309000190318160CF043C0FE01E15AFF4F60817E
:1030A00071818281938120E030E040E251E40E940E
:1030B0001F02DC01CB018E01075A1F4FBC01CD015D
:1030C0000E944900DC01CB01F801918380831FC07D
:1030D000FE01E95AFF4F88EC90E091838083FE0166
:1030E000E95AFF4F808191810197F1F7FE01E95A7A
:1030F000FF4F91838083DE01A75ABF4FFE01E75A3D
:10310000FF4F80819181019711969C938E93FE01D0
:10311000E75AFF4F808191810097D1F627C08E0139
:10312000075A1F4FFE01E55AFF4F6081718182816E
:1031300093810E944900DC01CB01F80191838083D7
:10314000DE01AB5ABF4FFE01E75AFF4F80819181EC
:103150008D939C93FE01EB5AFF4F808191810197E3
:10316000F1F7FE01EB5AFF4F918380830E943310E9
:1031700080E690E00E94171082E061E00E94BB10A0
:103180008BE690E00E941710A5E3B0E0E5E3F0E0E5
:10319000808182608C93A5E3B0E0E5E3F0E080817C
:1031A00084608C93A5E3B0E0E5E3F0E08081886083
:1031B0008C93A5E3B0E0E5E3F0E0808180618C933F
:1031C000A5E3B0E0E5E3F0E0808180628C93A5E3C5
:1031D000B0E0E5E3F0E080818E7F8C938091C400C5
:1031E0009AE0692F0E945A1D892F982F81E0692F3C
:1031F0000E94EE11FE01EF5AFF4F80E090E0A0EA3E
:10320000B0E480839183A283B3838E01035B1F4F5D
:10321000FE01EF5AFF4F608171818281938120E02E
:1032200030E04AEF54E40E941F02DC01CB01F801B8
:1032300080839183A283B383FE01E35BFF4F6081B0
:1032400071818281938120E030E040E85FE30E9459
:103250007903882344F4FE01E55BFF4F81E090E0B1
:103260009183808364C0FE01E35BFF4F60817181C5
:103270008281938120E03FEF4FE757E40E941903DA
:1032800018160CF043C0FE01EF5AFF4F60817181A8
:103290008281938120E030E040E251E40E941F02ED
:1032A000DC01CB018E01055B1F4FBC01CD010E94EB
:1032B0004900DC01CB01F801918380831FC0FE012E
:1032C000E75BFF4F88EC90E091838083FE01E75B32
:1032D000FF4F808191810197F1F7FE01E75BFF4F7E
:1032E00091838083DE01A55BBF4FFE01E55BFF4F4D
:1032F00080819181019711969C938E93FE01E55BED
:10330000FF4F808191810097D1F627C08E01055B28
:103310001F4FFE01E35BFF4F6081718182819381CA
:103320000E944900DC01CB01F80191838083DE011A
:10333000A95BBF4FFE01E55BFF4F808191818D93BB
:103340009C93FE01E95BFF4F808191810197F1F72A
:10335000FE01E95BFF4F91838083A5E3B0E0E5E3E5
:10336000F0E0808181608C93A5E3B0E0E5E3F0E0DC
:10337000808184608C93A5E3B0E0E5E3F0E0808198
:1033800088608C93A5E3B0E0E5E3F0E080818061A4
:103390008C93A5E3B0E0E5E3F0E0808180628C935C
:1033A000A5E3B0E0E5E3F0E080818D7F8C93809130
:1033B000C4009AE0692F0E945A1D982F81E0692F5E
:1033C0000E94EE11FE01ED5BFF4F80E090E0A0EA6D
:1033D000B0E480839183A283B3838E01015C1F4F8D
:1033E000FE01ED5BFF4F608171818281938120E05E
:1033F00030E04AEF54E40E941F02DC01CB01F801E7
:1034000080839183A283B383FE01FF9660817181E3
:103410008281938120E030E040E85FE30E947903FD
:1034200088232CF481E090E09EAF8DAF46C0FE0172
:10343000FF96608171818281938120E03FEF4FE7A9
:1034400057E40E941903181664F5FE01ED5BFF4F67
:10345000608171818281938120E030E040E251E41B
:103460000E941F02DC01CB01BC01CD010E9449007A
:10347000DC01CB019EAF8DAF0FC088EC90E09CAF1C
:103480008BAF8BAD9CAD0197F1F79CAF8BAF8DAD42
:103490009EAD01979EAF8DAF8DAD9EAD009769F744
:1034A00016C0FE01FF9660817181828193810E9426
:1034B0004900DC01CB019EAF8DAF8DAD9EAD9AAFC3
:1034C00089AF89AD9AAD0197F1F79AAF89AFA5E3BE
:1034D000B0E0E5E3F0E0808181608C93A5E3B0E0AB
:1034E000E5E3F0E0808182608C93A5E3B0E0E5E362
:1034F000F0E0808188608C93A5E3B0E0E5E3F0E044
:10350000808180618C93A5E3B0E0E5E3F0E0808109
:1035100080628C93A5E3B0E0E5E3F0E080818B7FEF
:103520008C938091C5009AE0692F0E945A1D892FC3
:10353000982F81E0692F0E94EE1180E090E0A0EAD0
:10354000B0E48DAB9EABAFABB8AF6DA97EA98FA930
:1035500098AD20E030E04AEF54E40E941F02DC0105
:10356000CB0189AB9AABABABBCAB69A97AA98BA9F0
:103570009CA920E030E040E85FE30E9479038823C3
:103580002CF481E090E098AB8FA73FC069A97AA99D
:103590008BA99CA920E03FEF4FE757E40E94190355
:1035A00018164CF56DA97EA98FA998AD20E030E0E2
:1035B00040E251E40E941F02DC01CB01BC01CD01BD
:1035C0000E944900DC01CB0198AB8FA70FC088ECAB
:1035D00090E09EA78DA78DA59EA50197F1F79EA7C8
:1035E0008DA78FA598A9019798AB8FA78FA598A9AC
:1035F000009769F714C069A97AA98BA99CA90E94B0
:103600004900DC01CB0198AB8FA78FA598A99CA797
:103610008BA78BA59CA50197F1F79CA78BA7A5E38A
:10362000B0E0E5E3F0E0808181608C93A5E3B0E059
:10363000E5E3F0E0808182608C93A5E3B0E0E5E310
:10364000F0E0808184608C93A5E3B0E0E5E3F0E0F6
:10365000808180618C93A5E3B0E0E5E3F0E08081B8
:1036600080628C93A5E3B0E0E5E3F0E08081877FA2
:103670008C938091C5009AE0692F0E945A1D982F63
:1036800081E0692F0E94EE1180E090E0A0EAB0E4B2
:103690008FA398A7A9A7BAA76FA178A589A59AA56E
:1036A00020E030E04AEF54E40E941F02DC01CB012D
:1036B0008BA39CA3ADA3BEA36BA17CA18DA19EA156
:1036C00020E030E040E85FE30E94790388232CF497
:1036D00081E090E09AA389A33FC06BA17CA18DA15A
:1036E0009EA120E03FEF4FE757E40E941903181610
:1036F0004CF56FA178A589A59AA520E030E040E2BD
:1037000051E40E941F02DC01CB01BC01CD010E94EB
:103710004900DC01CB019AA389A30FC088EC90E09B
:1037200098A38F8F8F8D98A10197F1F798A38F8F12
:1037300089A19AA101979AA389A389A19AA1009727
:1037400069F714C06BA17CA18DA19EA10E944900C4
:10375000DC01CB019AA389A389A19AA19E8F8D8FA9
:103760008D8D9E8D0197F1F79E8F8D8FA5E3B0E033
:10377000E5E3F0E0808181608C93A5E3B0E0E5E3D0
:10378000F0E0808182608C93A5E3B0E0E5E3F0E0B7
:10379000808184608C93A5E3B0E0E5E3F0E0808174
:1037A00088608C93A5E3B0E0E5E3F0E0808180627F
:1037B0008C93A5E3B0E0E5E3F0E080818F7E8C930D
:1037C0008091C6009AE0692F0E945A1D892F982F78
:1037D00081E0692F0E94EE1180E090E0A0EAB0E461
:1037E000898F9A8FAB8FBC8F698D7A8D8B8D9C8DD5
:1037F00020E030E04AEF54E40E941F02DC01CB01DC
:103800008D8B9E8BAF8BB88F6D897E898F89988DBC
:1038100020E030E040E85FE30E94790388232CF445
:1038200081E090E09C8B8B8B3FC06D897E898F8976
:10383000988D20E03FEF4FE757E40E9419031816D8
:103840004CF5698D7A8D8B8D9C8D20E030E040E2C7
:1038500051E40E941F02DC01CB01BC01CD010E949A
:103860004900DC01CB019C8B8B8B0FC088EC90E076
:103870009A8B898B89899A890197F1F79A8B898B21
:103880008B899C8901979C8B8B8B8B899C8900975A
:1038900069F714C06D897E898F89988D0E944900CF
:1038A000DC01CB019C8B8B8B8B899C89988B8F87C0
:1038B0008F8598890197F1F7988B8F87A5E3B0E002
:1038C000E5E3F0E0808181608C93A5E3B0E0E5E37F
:1038D000F0E0808182608C93A5E3B0E0E5E3F0E066
:1038E000808184608C93A5E3B0E0E5E3F0E0808123
:1038F00088608C93A5E3B0E0E5E3F0E0808180612F
:103900008C93A5E3B0E0E5E3F0E080818F7D8C93BC
:103910008091C6009AE0692F0E945A1D982F81E07D
:10392000692F0E94EE1180E090E0A0EAB0E48B875E
:103930009C87AD87BE876B857C858D859E8520E0C5
:1039400030E04AEF54E40E941F02DC01CB018F8378
:103950009887A987BA876F81788589859A8520E0BD
:1039600030E040E85FE30E94790388232CF481E093
:1039700090E09E838D833FC06F81788589859A858D
:1039800020E03FEF4FE757E40E94190318164CF56B
:103990006B857C858D859E8520E030E040E251E49A
:1039A0000E941F02DC01CB01BC01CD010E94490035
:1039B000DC01CB019E838D830FC088EC90E09C835B
:1039C0008B838B819C810197F1F79C838B838D8105
:1039D0009E8101979E838D838D819E81009769F7DB
:1039E00014C06F81788589859A850E944900DC0121
:1039F000CB019E838D838D819E819A83898389816A
:103A00009A810197F1F79A8389838091C4008C335E
:103A100039F41092C4008091C5008F5F8093C50077
:103A20008091C5008C3339F41092C5008091C60096
:103A30008F5F8093C6008091C600883111F00C948E
:103A400056121092C6000C9456121F920F920FB687
:103A50000F9211248F939F93EF93FF93DF93CF9354
:103A6000CDB7DEB78091C7009091C80001969093C2
:103A7000C8008093C7008091C7009091C8008B3721
:103A8000910569F41092C8001092C700E2E5F0E0D9
:103A90008EEE80838091C4008F5F8093C400CF91AD
:103AA000DF91FF91EF919F918F910F900FBE0F903B
:103AB0001F901895991B79E004C0991F961708F07C
:103AC000961B881F7A95C9F7809508952F923F928B
:103AD0004F925F926F927F928F929F92AF92BF921E
:103AE000CF92DF92EF92FF920F931F93CF93DF93CA
:103AF000CDB7DEB7CA1BDB0B0FB6F894DEBF0FBE27
:103B0000CDBF09942A88398848885F846E847D8473
:103B10008C849B84AA84B984C884DF80EE80FD8075
:103B20000C811B81AA81B981CE0FD11D0FB6F894EB
:0E3B3000DEBF0FBECDBFED010895F894FFCFAC
:103B3E007072657373203120746F00736574206327
:103B4E006C6F636B00686F7572733D2D2D006D6920
:103B5E006E757465733D2D2D007365636F6E6473A2
:103B6E003D2D2D0077726F6E672063686F696365F8
:103B7E000000000000000000003738392F343536C1
:103B8E002A3132332D41303D2B3F065B4F666D7D22
:043B9E00477F6F00EE
:00000001FF
